:1000000073C000009FC000009DC000009BC00000A6
:1000100099C0000097C0000095C0000093C0000088
:1000200091C000008FC000008DC000008BC0000098
:1000300089C0000087C0000085C0000083C00000A8
:1000400081C000007FC000007DC000007BC00000B8
:1000500079C0000077C0000075C0000047C30000F1
:1000600071C00000D7C100000BC200006BC00000CF
:1000700069C0000067C0000065C0000063C00000E8
:1000800061C000005FC000005DC000005BC00000F8
:1000900063C2000097C2000055C0000053C00000BA
:1000A00051C000004FC000004DC000004BC0000018
:1000B00049C0000047C0000045C0000043C0000028
:1000C00041C000003FC000003DC000003BC0000038
:1000D00039C0000037C0000035C0000033C0000048
:1000E00031C0000069020B0311241FBECFEFD1E223
:1000F000DEBFCDBF00E00CBF12E0A0E0B2E0E4E95B
:10010000F8E000E00BBF02C007900D92A031B107EC
:10011000D9F723E0A0E1B2E001C01D92A335B207F8
:10012000E1F710E0C8EED0E000E005C02297010939
:10013000FE010BBFA9D3C43ED10780E00807B1F789
:1001400032D0A6C35DCFDC01ED91FC910190F0812E
:10015000E02D199426E040E855E260E070E080E18F
:1001600092E0F8D026E040E855E260E070E08DEAE9
:1001700092E0F0C08DEA92E01AD0892B39F08DEA36
:1001800092E02ED0BC0180E192E0DDDF80E192E0E0
:100190000ED0892B39F080E192E022D0BC018DEAAB
:1001A00092E0D1CF0895ECD2D5DFE4DFFECFFC01A1
:1001B000818D228D90E0805C9F4F821B91098F730F
:1001C00099270895FC01918D828D981731F0828DC9
:1001D000E80FF11D858D90E008958FEF9FEF089552
:1001E000FC01918D828D981761F0828DDF01A80F3F
:1001F000B11D5D968C91928D9F5F9F73928F90E061
:1002000008958FEF9FEF0895FC01848DDF01A80F03
:10021000B11DA35ABF4F2C91848D90E001968F732E
:100220009927848FA689B7892C93A089B1898C914D
:1002300080648C93938D848D981306C00288F38913
:10024000E02D80818F7D80830895CF93DF93EC0133
:10025000888D8823C1F0EA89FB89808185FD05C0EE
:10026000A889B9898C9186FD0EC00FB607FCF5CF21
:10027000808185FFF2CFA889B9898C9185FFEDCF68
:10028000CE01C2DFE8CFDF91CF910895CF92DF9208
:10029000FF920F931F93CF93DF931F92CDB7DEB7DB
:1002A0006C01DC015B969C915B975C968C915C97F2
:1002B000981307C05096ED91FC915197808185FD70
:1002C00031C0F601038D10E00F5F1F4F0F73112730
:1002D000F02EF601848DF81210C00FB607FCF9CF8E
:1002E000D6015096ED91FC915197808185FFF1CF19
:1002F000C601698389DF6981ECCF838DE80FF11D29
:10030000E35AFF4F6083D6015B960C935B9752963E
:10031000ED91FC91539780818062808381E05896B3
:100320008C930DC0D6015696ED91FC915797608342
:100330005096ED91FC91519780818064808381E09B
:1003400090E00F90DF91CF911F910F91FF90DF9080
:10035000CF900895BF92CF92DF92EF92FF92CF930A
:10036000DF93EC016A017B01B22EE889F98982E012
:100370008083411581EE58076105710599F060E0B1
:1003800079E08DE390E0A70196015CD2215031091C
:10039000410951095695479537952795211580E1D3
:1003A000380790F0E889F989108260E874E88EE1F6
:1003B00090E0A701960146D2215031094109510927
:1003C0005695479537952795EC85FD853083EE85C5
:1003D000FF852083188EEC89FD89B082EA89FB892C
:1003E000808180618083EA89FB8980818860808345
:1003F000EA89FB89808180688083EA89FB89808122
:100400008F7D8083DF91CF91FF90EF90DF90CF9031
:10041000BF9008951F920F920FB60F9211240BB642
:100420000F922F938F939F93EF93FF93E09120026E
:10043000F09121028081E0912602F091270282FD55
:1004400012C09081809129028F5F8F7320912A02C0
:10045000821751F0E0912902F0E0E05FFD4F958FA7
:100460008093290201C08081FF91EF919F918F912C
:100470002F910F900BBE0F900FBE0F901F901895ED
:100480001F920F920FB60F9211240BB60F922F935B
:100490003F934F935F936F937F938F939F93AF930C
:1004A000BF93EF93FF9380E192E0AEDEFF91EF9177
:1004B000BF91AF919F918F917F916F915F914F917C
:1004C0003F912F910F900BBE0F900FBE0F901F907A
:1004D0001895109213021092120288EE93E0A0E099
:1004E000B0E08093140290931502A0931602B0938B
:1004F000170284E092E0909311028093100285EC41
:1005000090E090931D0280931C0284EC90E0909305
:100510001F0280931E0280EC90E090932102809352
:10052000200281EC90E0909323028093220282ECDF
:1005300090E0909325028093240286EC90E09093C3
:100540002702809326021092290210922A0210920A
:100550002B0210922C0208951F920F920FB60F9249
:1005600011240BB60F922F938F939F93EF93FF93CA
:10057000E091BD02F091BE028081E091C302F09152
:10058000C40282FD12C090818091C6028F5F8F737A
:100590002091C702821751F0E091C602F0E0E355C6
:1005A000FD4F958F8093C60201C08081FF91EF912E
:1005B0009F918F912F910F900BBE0F900FBE0F90B8
:1005C0001F9018951F920F920FB60F9211240BB621
:1005D0000F922F933F934F935F936F937F938F93DC
:1005E0009F93AF93BF93EF93FF938DEA92E00CDE5E
:1005F000FF91EF91BF91AF919F918F917F916F91FB
:100600005F914F913F912F910F900BBE0F900FBEB6
:100610000F901F9018951092B0021092AF0288EEC2
:1006200093E0A0E0B0E08093B1029093B202A09377
:10063000B302B093B40284E092E09093AE02809350
:10064000AD028DEC90E09093BA028093B9028CECED
:1006500090E09093BC028093BB0288EC90E0909372
:10066000BE028093BD0289EC90E09093C00280931B
:10067000BF028AEC90E09093C2028093C1028EEC9C
:1006800090E09093C4028093C3021092C60210922D
:10069000C7021092C8021092C9020895CF92DF9249
:1006A000EF92FF920F931F93CF93DF936C017A0128
:1006B000EB01E60EF71E00E010E0CE15DF0561F05D
:1006C0006991D601ED91FC910190F081E02DC60178
:1006D0001995080F191FF1CFC801DF91CF911F9114
:1006E0000F91FF90EF90DF90CF9008951F920F929F
:1006F0000FB60F9211242F933F938F939F93AF9335
:10070000BF9380914B0390914C03A0914D03B09106
:100710004E0330914A0323E0230F2D3720F4019636
:10072000A11DB11D05C026E8230F0296A11DB11D14
:1007300020934A0380934B0390934C03A0934D0363
:10074000B0934E0380914F0390915003A0915103B9
:10075000B09152030196A11DB11D80934F03909358
:100760005003A0935103B0935203BF91AF919F9157
:100770008F913F912F910F900FBE0F901F90189562
:10078000789484B5826084BD84B5816084BD85B56C
:10079000826085BD85B5816085BDEEE6F0E0808133
:1007A00081608083E1E8F0E0108280818260808354
:1007B000808181608083E0E8F0E0808181608083D7
:1007C000E1EBF0E0808184608083E0EBF0E0808109
:1007D00081608083E1E9F0E08081826080838081B4
:1007E00081608083E0E9F0E0808181608083E1EADC
:1007F000F0E0808182608083808181608083E0EA94
:10080000F0E0808181608083E1E2F1E080818260BC
:100810008083808181608083E0E2F1E0808181607B
:100820008083EAE7F0E08081846080838081826059
:100830008083808181608083808180688083109242
:10084000C1000895A1E21A2EAA1BBB1BFD010DC019
:10085000AA1FBB1FEE1FFF1FA217B307E407F50770
:1008600020F0A21BB30BE40BF50B661F771F881F4C
:10087000991F1A9469F760957095809590959B01E2
:10088000AC01BD01CF0108950790F691E02D1994B8
:04089000F894FFCF0A
:100894000000000046014E03D700F000E2002501ED
:00000001FF
