:10000000D3C00000FFC00000FDC00000FBC0000026
:10001000F9C00000F7C00000F5C00000F3C0000008
:10002000F1C00000EFC00000EDC00000EBC0000018
:10003000E9C00000E7C00000E5C00000E3C0000028
:10004000E1C00000DFC00000DDC00000DBC0000038
:10005000D9C00000D7C00000D5C0000012C4000005
:10006000D1C0000061C2000095C20000CBC00000FA
:10007000C9C00000C7C00000C5C00000C3C0000068
:10008000C1C00000BFC00000BDC00000BBC0000078
:10009000B9C00000B7C00000B5C00000B3C0000088
:1000A000B1C00000AFC00000ADC00000ABC0000098
:1000B000A9C00000A7C00000A5C00000A3C00000A8
:1000C000A1C000009FC000009DC000009BC00000B8
:1000D00099C0000097C0000095C0000093C00000C8
:1000E00091C00000010210202008081020401020BC
:1000F00040800201020108040201010204081020EC
:1001000040808040201008040201800402018040E9
:100110002010080402010804020101020408102052
:1001200040800102040810204080050505050705F0
:1001300008080808020202020A0A08080404040463
:10014000010101010101010103030303030303038F
:10015000040707070C0C0C0C0C0C0C0C020202021E
:1001600006060606060606060B0B0B0B0B0B0B0B07
:1001700000002200250028002B002E003100340052
:1001800002010000050108010B010000210024000C
:1001900027002A002D003000330001010000040177
:1001A00007010A012101F30211241FBECFEFD1E2A2
:1001B000DEBFCDBF00E00CBF12E0A0E0B2E0E8E798
:1001C000FBE000E00BBF02C007900D92A231B10727
:1001D000D9F722E0A2E1B2E001C01D92A13DB20731
:1001E000E1F711E0C8EAD1E000E005C0229701097B
:1001F000FE010BBFBBD4C43AD10780E00807B1F7BA
:100200001CD0B8C4FDCE26E040E855E260E070E0C6
:100210008BE292E029C18091140227D490931302BB
:10022000809312024AE050E0BC018BE292E013D3CB
:1002300068EE73E080E090E091C3B5D3E4DFEBDFDC
:10024000FECF4DE050E06CE070E086E192E000C04F
:10025000EF92FF921F93CF93DF9300D0CDB7DEB71D
:100260007C01162F61E0842F4A835B83798322D43B
:1002700061E0812F1FD44A81F701418B5B81528B52
:10028000138B7981748B10821182128213821482F3
:100290001582168217821086118612861386108A9E
:1002A00044EF51E060E070E04487558766877787C8
:1002B0000F900F900F90DF91CF911F91FF90EF90D3
:1002C0000895FC01818D228D90E0805C9F4F821B00
:1002D00091098F7399270895FC01918D828D98174C
:1002E00031F0828DE80FF11D858D90E008958FEF3C
:1002F0009FEF0895FC01918D828D981761F0828D9A
:10030000DF01A80FB11D5D968C91928D9F5F9F7349
:10031000928F90E008958FEF9FEF0895FC01848DF8
:10032000DF01A80FB11DA35ABF4F2C91848D90E01F
:1003300001968F739927848FA689B7892C93A089FA
:10034000B1898C9180648C93938D848D981306C0B1
:100350000288F389E02D80818F7D80830895CF937B
:10036000DF93EC01888D8823C1F0EA89FB898081C5
:1003700085FD05C0A889B9898C9186FD0EC00FB690
:1003800007FCF5CF808185FFF2CFA889B9898C91D0
:1003900085FFEDCFCE01C2DFE8CFDF91CF91089589
:1003A000CF92DF92FF920F931F93CF93DF931F9211
:1003B000CDB7DEB76C01DC015B969C915B975C96D8
:1003C0008C915C97981307C05096ED91FC915197D2
:1003D000808185FD31C0F601038D10E00F5F1F4F56
:1003E0000F731127F02EF601848DF81210C00FB68E
:1003F00007FCF9CFD6015096ED91FC915197808181
:1004000085FFF1CFC601698389DF6981ECCF838DD8
:10041000E80FF11DE35AFF4F6083D6015B960C9302
:100420005B975296ED91FC91539780818062808317
:1004300081E058968C930DC0D6015696ED91FC91B3
:10044000579760835096ED91FC915197808180641D
:10045000808381E090E00F90DF91CF911F910F9109
:10046000FF90DF90CF900895BF92CF92DF92EF92EE
:10047000FF92CF93DF93EC016A017B01B22EE889F2
:10048000F98982E08083411581EE58076105710585
:1004900099F060E079E08DE390E0A701960144D304
:1004A00021503109410951095695479537952795AE
:1004B000211580E1380790F0E889F989108260E819
:1004C00074E88EE190E0A70196012ED32150310906
:1004D000410951095695479537952795EC85FD8536
:1004E0003083EE85FF852083188EEC89FD89B082EC
:1004F000EA89FB89808180618083EA89FB89808128
:1005000088608083EA89FB89808180688083EA89AA
:10051000FB8980818F7D8083DF91CF91FF90EF9069
:10052000DF90CF90BF9008951F920F920FB60F9259
:1005300011240BB60F922F938F939F93EF93FF93FA
:10054000E0913B02F0913C028081E0914102F09108
:10055000420282FD12C09081809144028F5F8F73AE
:1005600020914502821751F0E0914402F0E0E55DF0
:10057000FD4F958F8093440201C08081FF91EF91E0
:100580009F918F912F910F900BBE0F900FBE0F90E8
:100590001F9018951F920F920FB60F9211240BB651
:1005A0000F922F933F934F935F936F937F938F930C
:1005B0009F93AF93BF93EF93FF938BE292E0AEDEF6
:1005C000FF91EF91BF91AF919F918F917F916F912B
:1005D0005F914F913F912F910F900BBE0F900FBEE7
:1005E0000F901F90189510922E0210922D0288EEF7
:1005F00093E0A0E0B0E080932F0290933002A093AC
:100600003102B093320285E092E090932C02809305
:100610002B0285EC90E0909338028093370284ECB3
:1006200090E090933A028093390280EC90E09093AE
:100630003C0280933B0281EC90E090933E028093D9
:100640003D0282EC90E09093400280933F0286EC62
:1006500090E09093420280934102109244021092E3
:10066000450210924602109247020895CF92DF92FF
:10067000EF92FF920F931F93CF93DF936C017A0158
:10068000EB01E60EF71E00E010E0CE15DF0561F08D
:100690006991D601ED91FC910190F081E02DC601A8
:1006A0001995080F191FF1CFC801DF91CF911F9144
:1006B0000F91FF90EF90DF90CF9008956115710535
:1006C00081F0DB010D900020E9F7AD0141505109A7
:1006D000461B570BDC01ED91FC910280F381E02D6C
:1006E000199480E090E00895DC01ED91FC91019077
:1006F000F081E02D19940F931F93CF93DF93EC01BA
:100700006DE0F2DF8C016AE0CE01EEDF800F911F19
:10071000DF91CF911F910F9108958F929F92AF9289
:10072000BF92CF92DF92EF92FF920F931F93CF93DE
:10073000DF93CDB7DEB7A1970FB6F894DEBF0FBE3B
:10074000CDBF7C01C42EE52FCB01D22E19A221E012
:100750002D1510F02AE0D22E8E010F5D1F4F8D2C2B
:10076000912CA12CB12C6C2D7E2FA5019401DCD1F4
:100770008C2DD29E80191124015011098A3014F455
:10078000805D01C0895CF801808321153105410538
:10079000510521F0C22EE32FCA01E5CFB801C701F0
:1007A0008DDFA1960FB6F894DEBF0FBECDBFDF91EF
:1007B000CF911F910F91FF90EF90DF90CF90BF905E
:1007C000AF909F908F900895CF92DF92EF92FF921B
:1007D0000F931F93CF93DF93EC016A017B012115E7
:1007E000310579F4E881F9810190F081E02D642FE1
:1007F000DF91CF911F910F91FF90EF90DF90CF90FD
:1008000019942A303105D9F477FF18C06DE26CDFF6
:100810008C0144275527BA014C195D096E097F09DF
:100820002AE0CE017ADF800F911FDF91CF911F91D7
:100830000F91FF90EF90DF90CF9008952AE0B701DD
:10084000A601CE01DF91CF911F910F91FF90EF9004
:10085000DF90CF9062CF0F931F93CF93DF93EC0184
:100860009A01AB01662757FD6095762FADDF8C01AD
:10087000CE0141DF800F911FDF91CF911F910F912A
:1008800008951F920F920FB60F9211242F933F934A
:100890008F939F93AF93BF938091C9029091CA02A7
:1008A000A091CB02B091CC023091C80223E0230F7B
:1008B0002D3720F40196A11DB11D05C026E8230F98
:1008C0000296A11DB11D2093C8028093C902909386
:1008D000CA02A093CB02B093CC028091CD0290913A
:1008E000CE02A091CF02B091D0020196A11DB11D00
:1008F0008093CD029093CE02A093CF02B093D0020A
:10090000BF91AF919F918F913F912F910F900FBE0B
:100910000F901F9018953FB7F8948091CD02909159
:10092000CE02A091CF02B091D00226B5A89B05C0FF
:100930002F3F19F00196A11DB11D3FBF6627782FEB
:10094000892F9A2F620F711D811D911D42E0660F44
:10095000771F881F991F4A95D1F70895CF92DF928C
:10096000EF92FF92CF93DF936B017C01D4DFEB0119
:10097000C114D104E104F10479F0D5D0CCDF6C1BB3
:100980007D0B683E7340A0F381E0C81AD108E108EE
:10099000F108C851DC4FECCFDF91CF91FF90EF9081
:1009A000DF90CF900895789484B5826084BD84B53B
:1009B000816084BD85B5826085BD85B5816085BD5A
:1009C000EEE6F0E0808181608083E1E8F0E0108273
:1009D000808182608083808181608083E0E8F0E0B4
:1009E000808181608083E1EBF0E08081846080839E
:1009F000E0EBF0E0808181608083E1E9F0E08081DC
:100A000082608083808181608083E0E9F0E0808182
:100A100081608083E1EAF0E0808182608083808170
:100A200081608083E0EAF0E0808181608083E1E2A0
:100A3000F1E0808182608083808181608083E0E258
:100A4000F1E0808181608083EAE7F0E0808184606A
:100A500080838081826080838081816080838081C7
:100A6000806880831092C1000895863308F0865311
:100A700020917B00982F9870277F922B90937B007A
:100A800087702091000290E4299F90011124822B0D
:100A900080937C0080917A00806480937A008091BA
:100AA0007A0086FDFCCF809178002091790090E05B
:100AB000922B0895CF93DF9390E0FC01EC51FF4F10
:100AC0002491FC01E65DFE4F8491882349F190E07A
:100AD000880F991FFC01E657FE4FA591B4918059EC
:100AE0009E4FFC01C591D4919FB7611108C0F89445
:100AF0008C91209582238C93888182230AC0623056
:100B000051F4F8948C91322F309583238C93888103
:100B1000822B888304C0F8948C91822B8C939FBF86
:100B2000DF91CF9108950895A1E21A2EAA1BBB1B55
:100B3000FD010DC0AA1FBB1FEE1FFF1FA217B307A9
:100B4000E407F50720F0A21BB30BE40BF50B661FBF
:100B5000771F881F991F1A9469F760957095809583
:100B600090959B01AC01BD01CF0108950790F691CE
:080B7000E02D1994F894FFCF69
:100B78000100000000D001360361017A016C01AF69
:020B880001006A
:00000001FF
